:10000000AAC003CCCDC0CCC083C6CAC0C9C0C8C0BA
:10001000C7C0C6C0C5C026CCC3C0C2C0C1C0C0C056
:10002000BFC0005EBCE2613FDD83C29C7E20A3FDB9
:100030001F419DC3217FFCA2401E5F01E3BD3E60C6
:1000400082DC237D9FC1421CFEA0E1BF5D0380DEF8
:100050003C62BEE0025CDF81633D7C22C09E1D43AA
:10006000A1FF4618FAA427799BC584DA3866E5BB58
:100070005907DB856739BAE406581947A5FB782686
:10008000C49A653BD987045AB8E6A7F91B45C698B8
:100090007A24F8A6441A99C7257B3A6486D85B056A
:1000A000E7B98CD2306EEDB3510F4E10F2AC2F7118
:1000B00093CD114FADF3702ECC92D38D6F31B2EC46
:1000C0000E50AFF1134DCE90722C6D33D18F0C5278
:1000D000B0EE326C8ED0530DEFB1F0AE4C1291CF2A
:1000E0002D73CA947628ABF517490856B4EA6937D8
:1000F000D58B5709EBB536688AD495CB2977F4AA06
:100100004816E9B7550B88D6346A2B7597C94A1437
:10011000F6A8742AC896154BA9F7B6E80A54D789E9
:100120006B35003A37003B38003936003240020266
:1001300002010101010101010101020480402010BE
:100140000804020100000102030400000000000096
:10015000D100C70DFA0D11241FBECFE5D2E0DEBFDE
:10016000CDBF10E0A0E6B0E0ECEAFFE102C00590F0
:100170000D92A63AB107D9F711E0A6EAB0E001C0A6
:100180001D92AA38B107E1F711E0C6E5D1E003C03E
:100190002297FE01E2DEC035D107D1F7FFDC04CFA4
:1001A0002FCF81E08093F3001092F4008093F5004C
:1001B0008FE091E06AE0EADA08950F931F938C01D3
:1001C000FC01808190E06EEF7FEF78DE855F61E07B
:1001D00017DCF801808190E06EEF7FEF6FDE855FC6
:1001E00061E032DCF801208186E090E0821B910919
:1001F000880F60E005DC82E390E0D9D51F910F9174
:100200000895682F83E020DC08950F931F938C01DD
:10021000FC01808190E06EEF7FEF50DE855F61E052
:10022000EFDBF801808190E06EEF7FEF47DE855FC6
:1002300061E00ADC83E061E0E3DB81E0E2DF88EE9D
:1002400093E0B5D51F910F9108950F931F938C01E3
:1002500080E0D7DFF801808190E06EEF7FEF2EDE47
:10026000855F60E0F1DB1F910F9108950F931F935D
:100270008C01FC01808190E06EEF7FEF1FDE855FD7
:1002800060E0E2DBF801208186E090E0821B9109CA
:10029000880F60E0D9DB1F910F910895CF92DF9214
:1002A000EF92FF920F931F93CF93DF938B016A011D
:1002B000EC016A96CE0192D9CE01B80170D9CE0177
:1002C0006EEB40E029D9760100E0CE01D8D8F701E5
:1002D00081937F010F5F0930C1F7CE017FD9C6013D
:1002E00068E08BD820E0F6019085891709F421E0B9
:1002F000822FDF91CF911F910F91FF90EF90DF90B0
:10030000CF900895CF92DF92EF92FF920F931F93B9
:10031000DF93CF93CDB7DEB72F970FB6F894DEBF3C
:100320000FBECDBF8091B3008F71082F10E020E089
:100330000DC063E070E0C2DDFC01DC01AC54BF4FD6
:100340001C92ED54FF4F138212822F5F822F90E098
:100350008017910774F38091B300807E805E809354
:10036000B3008BD78823C1F02091B3002F71822F67
:1003700090E0853191058CF563E070E09FDDFC0134
:10038000DC01AC54BF4F87E18C93ED54FF4F81E00B
:1003900090E09383828319C0809183008823E9F0E1
:1003A0002091B3002F71822F90E085319105ACF43C
:1003B00063E070E083DDFC01DC01AC54BF4F87E1FA
:1003C0008C93ED54FF4F138212822F5F2F71809117
:1003D000B300807E822B8093B3008091F400882349
:1003E00009F4BBC083EF90E010DF80E00ADF80E219
:1003F00090E0DDD481E005DF88E290E0D5DA83E0AB
:1004000060E0FEDA81E0FDDE83E058DB882309F45A
:100410004EC110E032C083E051DBF81621F4E394C2
:1004200020E1E216C1F7F39482E0F81611F0EE2411
:10043000F2CFE0E1EE16F9F00F3FA1F0C801B3E012
:1004400095958795BA95E1F7E82FF0E0EA55FF4FCB
:100450009081990F908380E024E02E1508F481E0CC
:10046000892B80830F5F1F4F0832110511F411E0B3
:1004700003C0FF24DCCF10E0789483EF90E0E5DE4A
:10048000112309F46AC02091A6004091A700309181
:10049000A8005091A900842F820F830F850F90919F
:1004A000AA00891709F059C08091F400863189F4B7
:1004B000922F80E0E42EFF24E82AF92A832F90E08F
:1004C0008F779070182F0027852F90E0082B192B1D
:1004D0000CC0822F90E06AE070E0F0DC7C01832F9A
:1004E00090E06AE070E0EADC8C0137FFE4C0109530
:1004F00001951F4FE0C063E070E0E0DCFC01DC012F
:10050000AC54BF4F81E28C93ED54FF4F13830283B1
:100510002F5F2F718091B300807E822B8093B30078
:100520002091B3002F71822F90E085319105ACF4BA
:1005300063E070E0C3DCFC01DC01AC54BF4F82E33C
:100540008C93ED54FF4FF382E2822F5F2F718091E5
:10055000B300807E822B8093B30080911D0188239D
:1005600009F494C085EF90E028DE8FE091E036D862
:100570008FE091E010D88FE091E064E441E0CCD7C7
:100580008EEE92E014D410E0F7E0CF2ED12CCC0EFA
:10059000DD1E7E010894E11CF11C38C0612F70E063
:1005A000E3E0660F771FEA95E1F769507F4F85EF2B
:1005B00090E0A60173DE882319F48FE097E21DC056
:1005C0004F81842F90E064E0959587956A95E1F7D7
:1005D000288530E054E0220F331F5A95E1F7822B33
:1005E000932B6AE070E06ADC4F7043FD059642FD94
:1005F000029641FD019640FD0196E12FF0E0EE0FDD
:10060000FF1FEE0DFF1D918380831F5F8091F60019
:10061000181708F4C3CF85EF90E028DE40911D0144
:100620002091B3002F718E010F5F1F4F34E04C5F9C
:100630004F7023C0F801E080F180FFE0EF16F7E291
:10064000FF06B9F0822F90E08531910594F463E0C4
:1006500070E034DCFC01DC01AC54BF4F832F829589
:10066000807F81608C93ED54FF4FF382E2822F5F95
:100670002F710E5F1F4F3F5F3F703417D9F62F71F8
:100680008091B300807E822B8093B3001092830010
:100690002F960FB6F894DEBF0FBECDBFCF91DF917E
:1006A0001F910F91FF90EF90DF90CF900895F894F5
:1006B0000FEF1FEFDECE2091B3002F71822F90E05D
:1006C000853191050CF417CF2BCF80911F0181301C
:1006D00089F0813028F08230D1F08330C1F529C013
:1006E00084E891E060E670E0C6DA84E891E0609129
:1006F000AC0009C084E891E063E670E0BCDA84E80D
:1007000091E06091AB004AE050E061DB20C084E8FA
:1007100091E066E670E0AFDA8091AD0090E06AE0CB
:1007200070E0CCDBBC0184E891E04AE050E094DB6F
:100730000EC084E891E069E670E09DDA80911E01C8
:10074000813029F484E891E06FE670E094DA84E87F
:1007500091E061E770E08FDA0895EF92FF920F93D6
:100760001F93E62E83E061E04BD980E04ADDFF2451
:1007700000E010E0C801B701F3D881E042DD88E273
:1007800090E012D983E060E03BD981E03ADD83E07C
:1007900095D990E0882309F491E0892F1F910F915A
:1007A000FF90EF9008956AE070E080E090E0D8D884
:1007B000089580911F01813089F0813028F08230C6
:1007C000B9F08330B1F523C08091AC00843D10F4C2
:1007D0008F5F01C088EC8093AC0008958091AB00DE
:1007E0008E3110F48F5F01C084E18093AB000895D7
:1007F0008091AD00813019F0863029F402C086E086
:1008000003C08CE301C081E08093AD00089580E2D5
:1008100090E06091AC00B6DB81E290E06091AB00CB
:10082000B1DB80E690E06091AD00ACDB81E08093CD
:100830001E0108958F929F92AF92BF92CF92DF9246
:10084000EF92FF920F931F938AE060E0D9D889E07E
:1008500060E0D6D88AE061E0F7D889E061E0F4D8BA
:1008600084E891E064E770E020DB2FDF992488249E
:10087000EE24FF24870103C0882E860175013BD832
:100880005B016C01DC01CB018E199F09A00BB10B40
:1008900085369105A105B10590F38AE00FD9891538
:1008A000A9F0882311F0982E11C080911F018F5F4D
:1008B00080931F01843011F410921F0180911E015A
:1008C000882311F010921E0100DF992489E0F6D8E8
:1008D000881599F2882381F66CDFF7DE8824CDCF66
:1008E000CF92DF92EF92FF920F931F93DF93CF93FC
:1008F000CDB7DEB729970FB6F894DEBF0FBECDBFD8
:1009000088EE93E054D2F89480E886BD16BC7894C3
:1009100080E290E02FDB182F8093AC0081E290E022
:1009200029DB082F8093AB0080E690E023DB982F33
:100930008093AD00185C1D3018F084ED8093AC00FE
:1009400004510B3018F084E18093AB0091509C333C
:1009500018F081E08093AD0082E891E090938701E8
:1009600080938601E0918201F09183010190F081F2
:10097000E02D099584E891E081DA84E891E06BE765
:1009800070E079D984E891E06091AC004AE050E0F1
:100990001EDA84E891E06DE770E06DD984E891E0BB
:1009A0006091AB004AE050E012DA84E891E060E840
:1009B00070E061D98091AD0090E06AE070E07EDA8D
:1009C000BC0184E891E04AE050E046DA84E891E036
:1009D00055DA88E060E014D888E061E035D888E036
:1009E0006DD8892B11F426DF03C088E060E02CD895
:1009F00085EF90E0E2DB1092F60003C02F5F2093BA
:100A0000F6006091F600633008F0B1C070E033E0AA
:100A1000660F771F3A95E1F769507F4F8FE091E0BD
:100A200024D6882309F4A3C08091F60090E023E047
:100A3000880F991F2A95E1F789509F4F67E0DDD411
:100A40002091F600E22FF0E093E0EE0FFF1F9A9561
:100A5000E1F7EB50FF4F9185891799F6CFCF0F2D16
:100A600010E083E0000F111F8A95E1F709501F4F36
:100A700085EF90E0B801A60111DC882391F1ED82A9
:100A80008FE091E0ABD58FE091E0B80188D58FE0A1
:100A900091E06EE440E040D58FE091E06B8140E072
:100AA0003BD58FE091E06C8140E036D5F801808144
:100AB000803129F08FE091E06D8140E02DD58FE00D
:100AC00091E08CD58FE091E0B80169D58FE091E09D
:100AD00068E441E021D580E190E069D18FE091E0C8
:100AE0007DD5F3948091F600F81608F4B8CF85EF21
:100AF00090E0BCDB8091F60080931D0183EF90E0D5
:100B000084DB83EF90E061E028DE882311F086E14A
:100B100007C083EF90E062E120DE882319F08BE0CC
:100B20008093F40083EF90E090DB3DDE84E891E079
:100B300051D8B89AC0988091AB0062E04091AC0067
:100B400020E436E0DED380E490ECA9D180E07CD3D1
:100B500029960FB6F894DEBF0FBECDBFCF91DF91BF
:100B60001F910F91FF90EF90DF90CF900895FF2499
:100B70006E010894C11CD11C1FE7E12EB3CFEF9288
:100B8000FF920F931F93B7D67B018C0151D288231C
:100B9000E1F08091210190912201892BB1F4909193
:100BA00024018091AB00806C981779F4A4D66093EF
:100BB000AE007093AF008093B0009093B10081E0DD
:100BC0001F910F91FF90EF90089585B7877E85BFA5
:100BD00085B7806285BF889585B78F7D85BF8BD6A9
:100BE0006E197F09800B910B6A30710581059105A3
:100BF00068F280E0E5CFAF92BF92CF92DF92EF92A2
:100C0000FF920F931F937EDB8091B3008F7119F1D8
:100C100000E003C088EE93E0CAD08FEF15D3809137
:100C2000B3008F7190E063E070E048D9482F4F5FC8
:100C300080E263EB70E036D382E0EDD2A0DF182FC4
:100C400080E002D3112339F48091B200882319F493
:100C50000F5F0530F9F64FD62091AE003091AF000E
:100C60004091B0005091B100621B730B840B950B47
:100C7000615477478B41904018F081E08093B20037
:100C80008091B200882341F040ECE42E47E2F42E3C
:100C900049E0042F112D0CC06091AD0070E080E0A0
:100CA00090E020E137E240E050E01AD97B018C016E
:100CB00022D65B016C01D801C70121E6E2162AEEBB
:100CC000F20620E0020720E0120720F080E69AEE0C
:100CD000A0E0B0E06CD00FD66A197B098C099D09A1
:100CE0006E157F058007910750F4E61AF70A080B86
:100CF000190B81E1E816F10401051105C8F61F91F1
:100D00000F91FF90EF90DF90CF90BF90AF9008953C
:100D10001F920F920FB60F9211242F933F934F9370
:100D20005F936F937F938F939F93AF93BF93EF9353
:100D3000FF9392D0FF91EF91BF91AF919F918F91CF
:100D40007F916F915F914F913F912F910F900FBEC7
:100D50000F901F901895982F83FF02C088E2982764
:100D600097FF02C090E001C0906484B7877F84BF82
:100D7000F89481B5886181BD91BD7894089596B14C
:100D8000379885B7877E806185BFF89485B7806284
:100D900085BF85B7846885BF85B78B77806885BF39
:100DA0007894889585B78F7D85BF96B90895CF9241
:100DB000DF92EF92FF921F93CF93DF937C01EC01C0
:100DC00058E0C52ED12C1DC01F5F193029F0969513
:100DD000879580329105C0F710922001812FBBDFEB
:100DE000CEDF8FEFB8DF960102C0220F331F1A95B6
:100DF000E2F7C21BD30B80912001882351F0C21B64
:100E0000D30BC031D10510F461E004C0CE0110E075
:100E1000E0CF60E020917D0130917E0140917F0123
:100E200050918001EC1AFD0AC701A0E0B0E0820FEA
:100E3000931FA41FB51F80937D0190937E01A09303
:100E40007F01B0938001862FDF91CF911F91FF909A
:100E5000EF90DF90CF900895809120018F5F809375
:100E600020010895C1989FB990E031E123E13DB997
:100E70002DB99F5F9830D9F73FB18FB980E021E15C
:100E800093E12DB99DB98F5F8830D9F72FB1932F9A
:100E900080E0C19A30E0282B392BC90108952BB787
:100EA0002F7B2BBFDFDF2BB720642BBF089580E0A3
:100EB00090E0D8DF80917201853009F052C080E067
:100EC00090EBD0DF282F80917601882371F49091E8
:100ED0007301992351F080917601E82FF0E0ED5DE8
:100EE000FE4F90838F5F8093760180917601E82F8B
:100EF000F0E0ED5DFE4F20838F5F8093760180915F
:100F00002101909122018227282F22952827022E45
:100F1000269526952025022E269520252770082E19
:100F2000892F269507942795902D8227069427953B
:100F300090258227909322018093210180912501A1
:100F40002091760190E0049630E0821793072CF010
:100F500080917601873408F46AC08DE092E882DFE0
:100F600008958091720187FF2EC0E0912501809144
:100F700072018F5F809372018150ED5FE80FF0E0A6
:100F8000ED5DFE4FE08180912101909122018E273D
:100F9000282F22952827022E269526952025022ED9
:100FA000269520252770082E892F269507942795AA
:100FB000902D8227069427959025822790932201D1
:100FC000809321012FC0809172018F5F8093720105
:100FD0008150833019F184302CF4882399F08130CA
:100FE00001F516C0893019F08A30D9F402C0EDE25B
:100FF00019C0E0917301909125018EEF891B8093B8
:10100000720110C08091210190912201E82F0AC045
:101010008091210190912201E92F04C08DE092E896
:1010200021DFEAEA8E2F90E0805098441BDF08957C
:1010300080917201853009F042C080912501209194
:10104000760190E0049630E08217930724F08091B7
:1010500076018734A0F184E08093720180912501AC
:10106000833430F081E090E090932201809321015D
:101070008091240186FF12C080917101282F30E0F9
:10108000C9018F7190704F9749F08091240190E0D1
:10109000822793278F719070892B89F48091210189
:1010A00090912201892B09F051C0E0916E01F091DD
:1010B0006F01309709F44AC080E0099553C08091D0
:1010C0007201843011F080E00895809170018823CE
:1010D00051F0809325011092240180912401809386
:1010E000230183E004C010922501809125018093A3
:1010F00076018FEF9FEF9093220180932101209141
:1011000073012223D9F08227282F22952827022E27
:10111000269526952025022E269520252770082E17
:10112000892F269507942795902D82270694279539
:1011300090258227909322018093210185E080935E
:1011400072018DED92E88EDE80E008958FEF9FEFC3
:10115000AFEFBFEF80936A0190936B01A0936C0196
:10116000B0936D0181E0089580917201853089F41A
:1011700080917601882369F480E090E090DE90FD14
:1011800008C08DE092E88BDE84E08093720181E0FC
:10119000089580E00895982F86FD05C0907E809187
:1011A00071018F71980F90932401E0916E01F0917D
:1011B0006F01309711F081E009958FEF9FEF9093C9
:1011C000220180932101809121019091220120919F
:1011D00073018227282F22952827022E26952695EF
:1011E0002025022E269520252770082E892F26954A
:1011F00007942795902D822706942795902582277E
:10120000909322018093210186E0809372018DE307
:1012100092E828DE0895282F12C0222381F095B786
:10122000233011F080E001C080E1977E892B85BFDB
:1012300085B7806285BF889585B78F7D85BF809192
:101240007201843051F708951F93182F87FF03C050
:101250008DE092E80CC0992787FD9095956E1FDE72
:1012600085E092E81CDE112319F087E092E817DE92
:1012700084E0809372011F91089580E090E00FDE7A
:10128000892F86958695817008951F93182F409316
:10129000250126E231E0C90150E063D6812F7BDFD2
:1012A0001F9108950F931F93CF93DF93182FEB0196
:1012B000042F01C0BDDE58DF8823E1F3812FBE017A
:1012C000402FE3DFDF91CF911F910F910895C19AD5
:1012D000B99A81E061E0B8D381E061E091D385E023
:1012E00061E08ED384E060E08BD386E061E088D358
:1012F00080E18DB982E060E083D382E061E0A4D335
:1013000008951F93162F80937101409373013093BA
:10131000750120937401DBDF80E090E0A3DD85E0C0
:1013200092E8A0DD80E098EB02C080E090E09ADDDA
:1013300082E0C4D3892BC9F3812F90E0E4E0880FC9
:10134000991FEA95E1F7876C90688CDD80917401B4
:10135000909175018050904685DD86E096EC82DDA7
:1013600082EA94E97FDD8CEA92EC7CDD10917301D6
:10137000112339F083E89AEC75DD812F90E09E6CA3
:1013800005C08BE89AEC6EDD8DE29EEC6BDD83E8A8
:1013900094EC68DD80E598E965DD87E79CEC62DD2B
:1013A00080E090EE5FDD80E098EC5CDD89E490EC1D
:1013B00059DD84E0809372018091710190E08F711A
:1013C0009070892B39F080E067E577E040E050E0ED
:1013D00001D202C080E00FD2809171011F91089567
:1013E000FC0113861586148687E090E012863197FB
:1013F000009711F00197FACF0895DC0180E00BC04F
:10140000E82FF0E08D9190E0E827F927EE5DFF4F9F
:10141000E49161508E2F662399F70895DF92EF9241
:10142000FF920F931F93FC01E08001811281F894D9
:10143000F80181818E2981838281DE2CD0948D21D7
:10144000828383E090E0B0D2F80181818D21818395
:101450008AE090E0A9D2F8010081789485E390E0D9
:10146000A3D280E010E0FF240E211F21012B09F000
:1014700081E01F910F91FF90EF90DF900895EF9220
:10148000FF920F931F93CF93DF937C0101E010E055
:10149000C0E0D0E0C701C2DF8111102B000F219600
:1014A000C830D105B9F7812FDF91CF911F910F91EE
:1014B000FF90EF9008951F93CF93DF93FC0110816D
:1014C000C181D281912F909560FF11C0F8948A81DB
:1014D00089238A838981812B89838AE090E064D281
:1014E0008A81812B8A83789487E390E010C0F894F6
:1014F0008A8189238A838981812B898381E490E091
:1015000053D28A81812B8A83789485E090E04CD2F3
:10151000DF91CF911F910895CF92DF92EF92FF92CA
:101520000F931F93CF93DF938C01E42EFF24F3944A
:10153000C0E0D0E0C62EDD2460E08F2D90E08C214D
:101540009D21892B09F061E0C801B5DFFF0C2196D0
:10155000C830D10589F7EE20A9F4F894D801119686
:10156000ED91FC91129791818C91809598239183B4
:101570001196ED91FC91129792818C918095982310
:1015800092837894DF91CF911F910F91FF90EF900C
:10159000DF90CF9008956CEC40E0BEDF0895EF92AD
:1015A000FF920F931F93CF93DF938C017B0165E52F
:1015B00040E0B2DFC0E0D0E0F701EC0FFD1FC80152
:1015C000608140E0A9DF2196C830D105A9F7DF91FD
:1015D000CF911F910F91FF90EF900895DF92EF92BE
:1015E000FF920F931F93CF93DF93FC010081C18182
:1015F000D281F8948981D02ED0948D2189837894DA
:101600001DE7E02EFF24115039F182E090E0CCD1AB
:10161000888190E08E219F21892BA9F3F8948A81FB
:101620008D218A838981802B8983789480EE91E053
:10163000BBD1F89489818D21898386E490E0B4D16F
:10164000888110E090E0E822F922EF2809F411E007
:1016500078948AE991E0A8D1812FDF91CF911F91F1
:101660000F91FF90EF90DF900895AF92BF92DF92BD
:10167000EF92FF920F931F93CF93DF93EC015B01E7
:101680008D85882309F05CC0CE01A8DF882329F46A
:101690001B861D861C8690E067C0CE0160EF40E08F
:1016A0003BDFFF24F39401E0DD24EE24CE01B6DE1F
:1016B000182FCE01B3DE113019F48130E1F438C0B7
:1016C000181709F58B85081770F460E0FE01EE0D20
:1016D000F11D838190E02F2D30E082239323181693
:1016E00019064CF003C060E0081729F0093008F033
:1016F0004BC00C8749C0FE01EE0DF11D83818F297F
:10170000838361E009C0612FFE01EE0DF11D9F2D65
:101710009095838189238383CE01CDDE0F5FFF0CFB
:1017200019F4E394FF24F39487E08E1508F0BECFFC
:10173000013430F0DB86DD2011F581E08D871FC09C
:101740001B861D861C8690E0DE0120E030E0F5015E
:10175000E20FF31F13968C91139780832F5F3F4FF7
:1017600011962830310599F7892FDF91CF911F917C
:101770000F91FF90EF90DF90BF90AF9008958B8115
:101780008823F1F291E0E0CFD02EBECFFF920F93ED
:101790001F938C01F62E862F60E032D18F2D90E0C2
:1017A000FC01E75CFE4FE491D801EC93825D9E4F13
:1017B000FC016491E8E2F1E0E60FF11DE49111967D
:1017C000EC93119712961C92C8010ADE1F910F919B
:1017D000FF900895882371F48FB7F894709378017F
:1017E000609377018FBF85B78C7F842B85BF8BB7C4
:1017F00080648BBF0895882339F48BB78F7B8BBFB0
:10180000109278011092770108951F920F920FB6EF
:101810000F9211242F933F934F935F936F937F9376
:101820008F939F93AF93BF93EF93FF938091770133
:1018300090917801892B29F0E0917701F09178015E
:101840000995FF91EF91BF91AF919F918F917F91FA
:101850006F915F914F913F912F910F900FBE0F901D
:101860001F9018951F920F920FB60F9211242F936D
:101870003F938F939F93AF93BF9380917D019091FE
:101880007E01A0917F01B091800130918101232FD1
:101890002A5F2D3728F02D570396A11DB11D03C0D7
:1018A0000296A11DB11D2093810180937D0190932B
:1018B0007E01A0937F01B093800180917901909186
:1018C0007A01A0917B01B0917C010196A11DB11D0F
:1018D0008093790190937A01A0937B01B0937C016E
:1018E000BF91AF919F918F913F912F910F900FBE1C
:1018F0000F901F9018958FB7F89420917D0130912B
:101900007E0140917F01509180018FBFB901CA01D2
:1019100008959FB7F8942091790130917A01409110
:101920007B0150917C0182B708B600FE06C08F3F54
:1019300021F02F5F3F4F4F4F5F4F9FBF542F432FDB
:10194000322F2227280F311D411D511D83E0220F08
:10195000331F441F551F8A95D1F7B901CA01089555
:10196000EF92FF920F931F93CF93DF937B018C0134
:10197000D0DFEB010DC0CDDF6C1B7D0B685E7340CB
:10198000D0F30894E108F10801091109C851DC4FAE
:10199000E114F1040105110571F7DF91CF911F9159
:1019A0000F91FF90EF900895019739F0019729F07A
:1019B000880F991F01970197F1F70895789480B7E0
:1019C000836080BF83B7877F83BF83B7887F83604F
:1019D00083BF89B7816089BF8EB5887F8EBD8FB583
:1019E0008C7F81608FBD8EB5877E8EBD8EB5887FE2
:1019F00083608EBD86B1887F866086B9379A0895E8
:101A0000482F50E0CA01875C9E4FFC012491425D43
:101A10005E4FFA0184918823B1F0E82FF0E0EE5D8B
:101A2000FE4FE491F0E0662341F49FB7F894808183
:101A30002095822380839FBF08959FB7F89480816B
:101A4000822B80839FBF0895282F482F50E0CA0122
:101A5000875C9E4FFC013491425D5E4FFA01949188
:101A6000992359F1223019F480B78F7304C02330C1
:101A700021F480B78F7C80BF0AC0243019F48FB561
:101A80008F7304C0253019F48FB58F7C8FBDE92F7B
:101A9000F0E0EB5DFE4FE491F0E0662341F49FB788
:101AA000F89480813095832380839FBF08959FB7EA
:101AB000F8948081832B80839FBF0895282F482F1F
:101AC00050E0CA01875C9E4FFC019491425D5E4FDD
:101AD000FA013491332319F420E030E022C022309F
:101AE00019F480B78F7304C0233021F480B78F7C42
:101AF00080BF0AC0243019F48FB58F7304C025301D
:101B000019F48FB58F7C8FBDE32FF0E0E85DFE4FB9
:101B1000E491F0E0808120E030E0892311F021E0C1
:101B200030E0C901089508950895D39ADB9A089585
:101B3000862F880F8E7162956F70606122E095E04C
:101B400059E0F89407C00000000000000000000009
:101B500000000000879510F0DB9802C0DB9A0000BF
:101B6000579510F40000000033E049E54A95F1F77D
:101B700000003A95D1F700009A9529F700002A95C0
:101B800021F095E0862F54E0E5CF7894089588E819
:101B900090E0909383018093820108950FDFA0D697
:101BA0002AD8FECF80E090E008958FEF9FEF089550
:101BB0008FEF9FEF08950895FC01A281B381ED910D
:101BC000FC9111970280F381E02DCD01099581E010
:101BD00090E0089528E831E0FC0133832283C901B5
:101BE000A2DF0895FC0188E990E091838083CF0112
:101BF000F1DF089580E990E0909389018093880156
:101C000084E891E0EFDF08950F931F93CF93DF9364
:101C10008C01EB0109C02196D801ED91FC91019056
:101C2000F081E02DC801099568816623A1F7DF9155
:101C3000CF911F910F910895EF92FF920F931F93F1
:101C4000CF93DF938C017B01EA010CC0D7016D912A
:101C50007D01D801ED91FC910190F081E02DC8014A
:101C600009952197209791F7DF91CF911F910F91BF
:101C7000FF90EF900895DC01ED91FC910280F381DB
:101C8000E02D099508952F923F924F925F926F92A7
:101C90007F928F929F92AF92BF92CF92DF92EF92FC
:101CA000FF920F931F93DF93CF93CDB7DEB7A0972B
:101CB0000FB6F894DEBF0FBECDBF1C016A017B01D9
:101CC000411551056105710541F440E350E060E0C4
:101CD00070E020E030E08CD053C088249924540177
:101CE000422E55246624772401E010E00C0F1D1FBE
:101CF000080D191DC701B601A30192010AD1F8010F
:101D000060830894811C911CA11CB11CC701B60101
:101D1000A3019201FED0C901DA016C017D01C11459
:101D2000D104E104F10401F781E0E82EF12CEC0E7E
:101D3000FD1EE80CF91C3E010894611C711CD501C4
:101D4000C4010197A109B1096C01C818D90815C0CF
:101D5000F601EE0DFF1D40814A3010F4405D01C0D8
:101D6000495C552747FD5095652F752FC10120E02F
:101D700030E03ED00894E108F1086E147F0441F78A
:101D8000A0960FB6F894DEBF0FBECDBFCF91DF9106
:101D90001F910F91FF90EF90DF90CF90BF90AF9089
:101DA0009F908F907F906F905F904F903F902F907B
:101DB0000895DC012115310541F4ED91FC9101906C
:101DC000F081E02D642F099508955DDF0895EF926D
:101DD000FF920F931F939A01E62EFF2400E010E07C
:101DE000B801A701E6DF1F910F91FF90EF900895D2
:101DF000EF92FF920F931F93CF93DF93EC017A0141
:101E00008B012115310541F4E881F9810190F081C0
:101E1000E02D642F099519C02A303105A9F477FF08
:101E20000FC04DE250E060E070E020E030E0E0DF25
:101E300010950095F094E094E11CF11C011D111D1A
:101E4000CE01B801A7012AE01EDFDF91CF911F91DB
:101E50000F91FF90EF900895EF92FF920F931F93D1
:101E60007B019A010027F7FC0095102FB801A7010C
:101E7000BFDF1F910F91FF90EF9008950F931F9375
:101E80008C014DE050E060E070E020E030E0B0DF39
:101E9000C8014AE050E060E070E020E030E0A8DFF8
:101EA00082E090E01F910F9108950F931F938C0192
:101EB000E2DEC801E3DF1F910F910895552700244A
:101EC00080FF02C0060E571F660F771F6115710550
:101ED00021F096958795009799F7952F802D089575
:101EE000FF27EE27BB27AA2760FF04C0A20FB31F5E
:101EF000E41FF51F220F331F441F551F969587952A
:101F00007795679589F70097760771F7CF01BD013F
:101F10000895A1E21A2EAA1BBB1BFD010DC0AA1F2A
:101F2000BB1FEE1FFF1FA217B307E407F50720F042
:101F3000A21BB30BE40BF50B661F771F881F991FBD
:101F40001A9469F760957095809590959B01AC0106
:101F5000BD01CF010895EE0FFF1F0590F491E02D14
:101F60000994FB01DC0102C001900D9241505040E8
:101F7000D8F70895E199FECF9FBB8EBBE09A9927D1
:101F80008DB30895262FE199FECF9FBB8EBBE09ABB
:101F900001970DB2021639F01CBA2DBB0FB6F8949A
:0C1FA000E29AE19A0FBE0895F894FFCF7A
:101FAC000D67000D6E000D69000D736176650064A0
:101FBC0000202000436F6E666967006700206E008A
:101FCC002069000100000000950D980D0000000034
:101FDC00930D940D00000000DC0D040E1C0ED20DB0
:061FEC00D80DD50DDB0D40
:00000001FF
